:020000040800F2
:10000000080500209D010008EF040008D703000840
:10001000DB03000861020008071C00080000000064
:100020000000000000000000000000001B15000898
:100030006502000800000000750C00083116000879
:10004000B7010008B7010008B7010008B7010008B0
:10005000B7010008B7010008B7010008B7010008A0
:10006000B7010008B7010008B7010008B701000890
:10007000B7010008B7010008B7010008B701000880
:10008000B7010008B70100082D020008B7010008F9
:10009000B7010008B7010008B7010008B701000860
:1000A000B7010008B7010008B7010008B701000850
:1000B000B7010008B7010008B7010008B701000840
:1000C000B7010008B7010008B7010008B701000830
:1000D000B70100089D190008B7010008B701000822
:1000E000B7010008B7010008B7010008B701000810
:1000F000B7010008B7010008B7010008B701000800
:10010000B7010008B7010008B7010008B7010008EF
:10011000B7010008B7010008B7010008B7010008DF
:10012000B7010008B7010008B7010008B7010008CF
:10013000B7010008B7010008B7010008B7010008BF
:10014000B7010008B7010008B7010008B7010008AF
:10015000B7010008B7010008B7010008B70100089F
:10016000B7010008B7010008B7010008B70100088F
:10017000B7010008B7010008B7010008B70100087F
:10018000B7010008B7010008DFF80CD000F02AF82A
:1001900000480047591D0008080500200648804710
:1001A00006480047FEE7FEE7FEE7FEE7FEE7FEE75C
:1001B000FEE7FEE7FEE7FEE771160008890100088A
:1001C000D2B201E000F8012B491EFBD27047002299
:1001D000F6E710B513460A4604461946FFF7F0FF46
:1001E000204610BD064C074D06E0E06840F00103D4
:1001F00094E8070098471034AC42F6D3FFF7C8FFE5
:10020000641E0008841E000800220A12D343036003
:1002100070470146C86C80B27047024600201368E0
:100220000B400BB1012000E00020704710B5022107
:100230000948FFF7F2FF012809D10748FFF7E9FF56
:1002400000EE100AB8EE400A044880ED000A0221D0
:100250000148FFF7D9FF10BD002001403000002009
:1002600000BFFEE77047000010B5014663291FD2AA
:10027000224A12684A434FF0E0235A6100229A61F1
:100280001A46126942F001021A6100BF4FF0E022E3
:10029000106900F001021AB100F48032002AF5D092
:1002A0006FF001024FF0E0231A6100229A6124E00E
:1002B000002200BF1EE0114B1B684FF0E024636179
:1002C0000023A36123461B6943F00103236100BFA0
:1002D0004FF0E023186900F001031BB100F48033F4
:1002E000002BF5D06FF001034FF0E02423610023D1
:1002F000A361521C8A42DED300BF10BD280000203B
:10030000F0B50A4600210023002400BF3DE001258E
:1003100005FA01F3156805EA03049C4234D1056827
:100320004F000326BE40B543056015794E00B54029
:100330000668354305601579012D02D01579022D27
:1003400016D185684F000326BE40B54385605579B8
:100350004E00B540866835438560456801268E406D
:10036000B5434560456896798E40B6B235434560E1
:10037000C5684F000326BE40B543C560D5794E0021
:10038000B540C6683543C560491C1029BFD3F0BDD0
:10039000F0B5002300244D07ED0E02FA05F3CE1050
:1003A00000F1200555F826504E07F70E0F26BE40E7
:1003B000B543CF1000F1200646F82750CE1000F1CB
:1003C000200555F8265045EA0304CE1000F120051B
:1003D00045F82640F0BD00BFFEE700BFFEE710B5C0
:1003E0000446204600F0D6F910BD10B5044620465C
:1003F00000F03EFA10BD10B50446204600F0F2F8B9
:1004000010BD10B50446204600F058F910BD10B5D7
:1004100000F0E2F800F04CF900F0B6F900F022FA32
:1004200000F090FA00F000FB00F070FB00F0E0FB41
:1004300010BD10B5FFF7EBFF00F037F810BD10B599
:100440000446204600F068FB10BD10B50446204667
:1004500000F07EFA10BD10B50446204600F0CEFB39
:1004600010BD10B50446204600F0E4FA10BD10B5EA
:100470000446204600F082F8204600F0EBF82046C3
:1004800000F054F9204600F051F9204600F0BAF986
:10049000204600F029FA204600F096FA204600F0A7
:1004A00005FB204600F074FB10BD10B540F256402D
:1004B00000F098F840F2145000F000F940F2564075
:1004C00000F068F94FF4C86000F0D2F94FF4FA7008
:1004D00000F03EFA4FF4FA7000F0ACFA40F25640E9
:1004E00000F01AFB4FF4966000F088FB10BD7047D7
:1004F00070B5002100230F22C4781CB3174C246868
:1005000004F4E064C4F5E064C4F30721C1F1040419
:10051000E3B20A4144789C40E1B28478144021431C
:100520000C07210E0E4C05786155047804F01F0568
:100530000124AC4005786D11AD0005F1E025C5F84A
:10054000004109E0047804F01F050124AC40054D8A
:100550000678761145F8264070BD00000CED00E0ED
:1005600000E400E080E100E002490143024A11603A
:10057000704700000000FA050CED00E010B50446DD
:1005800024B10121880701F0B3F804E000214FF005
:10059000804001F0ADF810BD1CB50121084600F007
:1005A0006BFB012205210B48FFF7F2FE02208DF8BC
:1005B00004002020009000208DF8060003208DF814
:1005C000050001208DF8070069460248FFF798FEF4
:1005D0001CBD00000000024010B5FFF7DDFF00F079
:1005E00009F810BD10B5044621464FF0804001F0D7
:1005F0008CF910BD00B589B00121084600F04CFB14
:100600000020ADF82000ADF81A0044F61F600790F6
:100610005320ADF8180006A94FF0804001F07CF996
:100620006020ADF804000020ADF810000120ADF806
:1006300006004FF4FA70039001A9000701F064F876
:100640000821C80601F09EF80121880701F044F84E
:1006500009B000BD10B5044624B10121880701F09E
:1006600047F804E000214FF0804001F041F810BD50
:100670001CB50121022000F0FFFA012203210B48E2
:10068000FFF786FE02208DF804000820009000206D
:100690008DF8060003208DF8050001208DF8070075
:1006A00069460248FFF72CFE1CBD00000004024012
:1006B00010B5FFF7DDFF00F009F810BD10B50446D6
:1006C00021464FF0804001F022F910BD00B589B0FD
:1006D0000121084600F0E0FA0020ADF82000ADF856
:1006E0001A0044F61F6007905320ADF8180006A9C1
:1006F0004FF0804001F010F96020ADF804000020B8
:10070000ADF810000120ADF806004FF4FA70039028
:1007100001A9000701F040F80821C80601F08EF891
:100720000121880700F0D8FF09B000BD10B50446CC
:1007300024B10121880700F0DBFF04E000214FF025
:10074000804000F0D5FF10BD1CB50121022000F053
:1007500093FA01220A210B48FFF71AFE02208DF8B6
:1007600004004002009000208DF8060003208DF860
:10077000050001208DF8070069460248FFF7C0FD1B
:100780001CBD00000004024010B5FFF7DDFF00F0C3
:1007900009F810BD10B5044621464FF0804001F025
:1007A000B8F810BD00B589B00121084600F074FA10
:1007B0000020ADF82000ADF81A0044F61F60079045
:1007C0005320ADF8180006A94FF0804001F0A4F8BE
:1007D0006020ADF804000020ADF810000120ADF855
:1007E00006004FF4FA70039001A9000701F034F8F5
:1007F0000821C80601F080F80121880700F06CFF8D
:1008000009B000BD10B5044624B10121044800F030
:100810006FFF03E00021024800F06AFF10BD0000F6
:10082000000C00401CB50121084600F025FA022208
:1008300000210B48FFF7ACFD02208DF804000120D9
:10084000009000208DF8060003208DF8050001209F
:100850008DF8070069460248FFF752FD1CBD0000F5
:100860000000024010B5FFF7DDFF00F00BF810BDEF
:1008700010B504462146024801F047F810BD0000BB
:10088000000C004000B589B00121082000F004FAF6
:100890000020ADF82000ADF81A0044F61F60079064
:1008A0005320ADF8180006A90E4801F035F8602075
:1008B000ADF804000020ADF810000120ADF80600EE
:1008C0004FF4FA70039001A9064800F01DFF0821BB
:1008D000044800F057FF0121024800F0FDFE09B076
:1008E00000BD0000000C004010B5044624B10121F9
:1008F000044800F0FDFE03E00021024800F0F8FE8D
:1009000010BD0000000C00401CB50121084600F09D
:10091000B3F9022201210A48FFF73AFD02208DF8BF
:100920000400009000208DF8060003208DF80500DB
:1009300001208DF8070069460148FFF7E1FC1CBD66
:100940000000024010B5FFF7DFFF00F00BF810BD0C
:1009500010B504462146024800F0D9FF10BD000042
:10096000000C004000B589B00121082000F094F986
:100970000020ADF82000ADF81A0044F61F60079083
:100980005320ADF8180006A90E4800F0C5FF6020FE
:10099000ADF804000020ADF810000120ADF806000D
:1009A0004FF4FA70039001A9064800F0F5FE082103
:1009B000044800F043FF0121024800F08DFE09B019
:1009C00000BD0000000C004010B5044624B1012118
:1009D000044800F08DFE03E00021024800F088FE8C
:1009E00010BD0000000C00401CB50121084600F0BD
:1009F00043F9022211460B48FFF7CAFC02208DF88A
:100A000004000420009000208DF8060003208DF8DB
:100A1000050001208DF8070069460248FFF770FCC9
:100A20001CBD00000000024010B5FFF7DDFF00F024
:100A30000BF810BD10B504462146024800F069FFCE
:100A400010BD0000000C004000B589B00121082055
:100A500000F022F90020ADF82000ADF81A0044F6AD
:100A60001F6007905320ADF8180006A90E4800F04B
:100A700053FF6020ADF804000020ADF81000012005
:100A8000ADF806004FF4FA70039001A9064800F093
:100A9000E3FE0821044800F02FFF0121024800F086
:100AA0001BFE09B000BD0000000C004010B504465C
:100AB00024B10121044800F01BFE03E0002102489C
:100AC00000F016FE10BD0000000400401CB501211E
:100AD000042000F0D1F8022206210B48FFF758FC51
:100AE00002208DF804004020009000208DF80600C0
:100AF00003208DF8050001208DF8070069460248A3
:100B0000FFF7FEFB1CBD00000008024010B5FFF718
:100B1000DDFF00F00BF810BD10B504462146024879
:100B200000F0F3FE10BD00000004004000B589B0E5
:100B30000121022000F0B0F80020ADF82000ADF84F
:100B40001A0044F61F6007905320ADF8180006A95C
:100B50000E4800F0E1FE6020ADF804000020ADF882
:100B600010000120ADF806004FF4FA70039001A9BF
:100B7000064800F0C9FD0821044800F003FE0121E9
:100B8000024800F0A9FD09B000BD000000040040CB
:100B900010B5044624B10121044800F0A9FD03E08A
:100BA0000021024800F0A4FD10BD00000004004038
:100BB0001CB50121042000F05FF8022207210B4838
:100BC000FFF7E6FB02208DF8040080200090002053
:100BD0008DF8060003208DF8050001208DF8070030
:100BE00069460248FFF78CFB1CBD0000000802406C
:100BF00010B5FFF7DDFF00F00BF810BD10B504468F
:100C00002146024800F083FE10BD000000040040B1
:100C100000B589B00121022000F03EF80020ADF8B7
:100C20002000ADF81A0044F61F6007905320ADF87D
:100C3000180006A90E4800F06FFE6020ADF8040011
:100C40000020ADF810000120ADF806004FF4FA7056
:100C5000039001A9064800F09FFD0821044800F018
:100C6000EDFD0121024800F037FD09B000BD000094
:100C7000000400407047000029B1064A1268024390
:100C8000044B1A6004E0034A12688243014B1A6065
:100C9000704700003038024029B1064A126802430A
:100CA000044B1A6004E0034A12688243014B1A6045
:100CB000704700004038024029B1064A12680243DA
:100CC000044B1A6004E0034A12688243014B1A6025
:100CD0007047000044380240F0B500210022002493
:100CE000022500260223324F3F6807F00C0121B194
:100CF000042905D0082937D105E02E4F076036E0DA
:100D00002D4F076033E02A4F3F1F3F68C7F38056DF
:100D1000274F3F1F3F6807F03F036EB1264FB7FBD9
:100D2000F3F7DFF88CC0ACF1040CDCF800C0CCF3B6
:100D3000881C07FB0CF40CE01E4FB7FBF3F7DFF841
:100D400070C0ACF1040CDCF800C0CCF3881C07FBCD
:100D50000CF4174F3F1F3F68C7F301477F1C7D000E
:100D6000B4FBF5F7076002E0124F076000BF00BF59
:100D70000F4F3F6807F0F0010909104F7A5C0768D0
:100D8000D74047600A4F3F6807F4E051890A0B4F8C
:100D90007A5C4768D7408760054F3F6807F4604139
:100DA000490B064F7A5C4768D740C760F0BD00002A
:100DB000083802400024F40000127A0014000020D9
:100DC00010B54FF4C860FFF710FB10BD10B54FF41D
:100DD000F570FFF70AFB10BD10B50446012C0CD1CD
:100DE0004FF44870FFF740FA40F21270FFF7F7FA3D
:100DF0004FF44870FFF738FA2CE0022C0CD14FF476
:100E00004870FFF731FA4FF4F570FFF7E8FA4FF446
:100E10004870FFF729FA1DE0032C1BD14FF44870EE
:100E2000FFF722FAFFF7CCFF4FF44870FFF71CFAE8
:100E30004FF4F570FFF7D3FA4FF44870FFF714FA48
:100E4000FFF7C4FF4FF44870FFF70EFA40F212703C
:100E5000FFF7C5FA4FF44870FFF706FAFFF7B0FF47
:100E60004FF44870FFF700FA40F25640FFF7B7FA28
:100E70004FF44870FFF7F8F9FFF7A8FF10BD10B561
:100E8000044600F034F92046FFF7A6FF00F069F9A8
:100E900010BD10B540F21450FFF7B3FA10BD10B5F5
:100EA0004FF4FA70FFF7ADFA10BD10B50446012CEF
:100EB0000CD14FF44870FFF7D7F94FF4E160FFF71A
:100EC0009AFA4FF44870FFF7CFF92CE0022C0CD1BE
:100ED0004FF44870FFF7C8F94FF4E670FFF78BFA4C
:100EE0004FF44870FFF7C0F91DE0032C1BD14FF4FD
:100EF0004870FFF7B9F9FFF7CCFF4FF44870FFF7E0
:100F0000B3F94FF4E670FFF776FA4FF44870FFF745
:100F1000ABF9FFF7C4FF4FF44870FFF7A5F94FF4A2
:100F2000E160FFF768FA4FF44870FFF79DF9FFF7AB
:100F3000B0FF4FF44870FFF797F940F25640FFF7C3
:100F40005AFA4FF44870FFF78FF9FFF7A8FF10BD6A
:100F500010B5FFF76EFA0120FFF789FA10BD10B542
:100F60004FF4AF60FFF771FA10BD10B54FF4FA708F
:100F7000FFF76BFA10BD10B50446012C0CD14FF4ED
:100F80004870FFF771F940F2FC60FFF758FA4FF430
:100F90004870FFF769F92CE0022C0CD14FF448702F
:100FA000FFF762F94FF4F570FFF749FA4FF4487014
:100FB000FFF75AF91DE0032C1BD14FF44870FFF7DF
:100FC00053F9FFF7CCFF4FF44870FFF74DF94FF49A
:100FD000F570FFF734FA4FF44870FFF745F9FFF763
:100FE000C4FF4FF44870FFF73FF940F2FC60FFF791
:100FF00026FA4FF44870FFF737F9FFF7B0FF4FF4C8
:101000004870FFF731F940F25640FFF718FA4FF4F5
:101010004870FFF729F9FFF7A8FF10BD10B54FF48E
:10102000E160FFF71EFA10BD10B54FF4FA70FFF73C
:1010300018FA10BD10B50446012C0CD14FF44870BD
:10104000FFF712F940F25E70FFF705FA4FF44870AF
:10105000FFF70AF92CE0022C0CD14FF44870FFF78F
:1010600003F94FF4FA70FFF7F6F94FF44870FFF701
:10107000FBF81DE0032C1BD14FF44870FFF7F4F888
:10108000FFF7CCFF4FF44870FFF7EEF84FF4FA701B
:10109000FFF7E1F94FF44870FFF7E6F8FFF7C4FFF8
:1010A0004FF44870FFF7E0F840F25E70FFF7D3F9B5
:1010B0004FF44870FFF7D8F8FFF7B0FF4FF44870CF
:1010C000FFF7D2F84FF49660FFF7C5F94FF4487078
:1010D000FFF7CAF8FFF7A8FF10BD10B5044600F0EF
:1010E00006F82046FFF7E1FE00F03BF810BD10B512
:1010F0004FF44870FFF7B8F8FFF762FEFFF7C9FE3C
:101100004FF44870FFF7B0F840F2FC60FFF797F932
:101110004FF4FA70FFF79FF94FF44870FFF7A4F807
:10112000FFF754FEFFF7BBFE4FF44870FFF79CF843
:10113000FFF715FFFFF772FF4FF44870FFF794F8C1
:1011400040F25640FFF77BF94FF49660FFF783F9C2
:101150004FF44870FFF788F8FFF707FFFFF764FFC9
:1011600010BD10B54FF44870FFF77EF8FFF728FE6A
:10117000FFF78FFE4FF44870FFF776F84FF4F570E5
:10118000FFF75DF940F25E70FFF765F94FF44870C4
:10119000FFF76AF8FFF71AFEFFF781FE4FF4487079
:1011A000FFF762F8FFF7DBFEFFF738FF4FF44870F8
:1011B000FFF75AF840F25640FFF741F94FF49660B6
:1011C000FFF749F94FF44870FFF74EF8FFF7CDFEEF
:1011D000FFF72AFF10BD10B5FFF7BAFE10BD10B51E
:1011E000FFF7F9FF00F05EFD00F024FA10BD0000EB
:1011F00010B579480078012821D177480078401C43
:10120000754908704FF44870FFF72EF8FFF7DEFDC0
:10121000FFF745FE4FF44870FFF726F8FFF7D0FDC3
:10122000FFF737FE4FF44870FFF71EF84FF4F570E4
:10123000FFF705F940F25E70FFF70DF9CAE0664866
:10124000007802282DD164480078401C624908705B
:101250004FF44870FFF708F8FFF7B8FDFFF71FFEDF
:101260004FF44870FFF700F8FFF779FEFFF7D6FE5E
:101270004FF44870FEF7F8FF40F25640FFF7DFF8F2
:101280004FF49660FFF7E7F84FF44870FEF7ECFF75
:101290004FF4F570FFF7A3F84FF4E160FFF7ABF8F8
:1012A00098E04D480078032811D14B480078401C45
:1012B000494908704FF44870FEF7D6FF40F21270AB
:1012C000FFF78DF84FF4E670FFF795F882E042489B
:1012D000007804282DD140480078401C3E49087011
:1012E0004FF44870FEF7C0FF40F25640FFF777F822
:1012F00040F25640FFF77FF84FF44870FEF7B4FF16
:10130000FFF733FEFFF790FE4FF44870FEF7ACFF97
:10131000FFF756FDFFF7BDFD4FF44870FEF7A4FF41
:1013200040F2FC60FFF78BF84FF4FA70FFF793F888
:1013300050E029480078052811D127480078401C42
:10134000254908704FF44870FEF78EFF4FF4F57092
:10135000FFF775F840F25E70FFF77DF83AE01E483F
:101360000078062836D101201B4908704FF44870D8
:10137000FEF77AFF40F25640FFF761F84FF49660AF
:10138000FFF769F84FF44870FEF76EFF4FF4F57001
:10139000FFF725F840F2FC60FFF72DF84FF4487096
:1013A000FEF762FFFFF712FDFFF779FD4FF448707B
:1013B000FEF75AFFFFF7D3FDFFF730FE4FF44870FA
:1013C000FEF752FF40F21270FFF709F84FF4F57084
:1013D000FFF711F810BD00003800002070B504467A
:1013E0000D46432C09D1FFF703FF4FF4FA60FEF7D7
:1013F0003BFF094800F082FC0CE0532C0AD100F0BE
:10140000D7FC284600F00AF84FF47A70FEF72CFF5C
:10141000FFF74BF870BD00003400002070B50546A2
:101420002C4676E0207858284CD014DC492831D05E
:1014300008DC422866D044284CD046283ED04828B4
:1014400064D11BE04A2831D04C284FD0522829D0F3
:1014500055285BD11AE066282CD008DC59283DD0ED
:101460005A2847D0622849D064284FD12EE06C28F2
:1014700038D0722812D0752848D103E00320FFF736
:101480002CFE44E00220FFF728FE40E00120FFF799
:1014900024FE3CE00320FFF7CDFD38E00220FFF7FB
:1014A000C9FD34E00120FFF7C5FD30E00320FFF760
:1014B000FCFC2CE00220FFF7F8FC28E00120FFF7FD
:1014C000F4FC24E00320FFF7DAFC20E00220FFF721
:1014D000D6FC1CE00120FFF7D2FC18E00320FFF748
:1014E0004AFD14E00220FFF746FD10E00120FFF75F
:1014F00042FD0CE00320FFF76FFC08E00220FFF73D
:101500006BFC04E00120FFF767FC00E000BF00BFB8
:10151000641C2078002885D170BD70470CB5002070
:10152000019000903448006840F4803032490860EF
:1015300000BF3148006800F4003000900198401C62
:101540000190009818B90198B0F5A04FF1D12A4840
:10155000006800F4003010B10120009001E000208C
:1015600000900098012846D123484030006840F0A0
:1015700080502149403108602048006840F44040D4
:101580001E4908601C48083000681B490831086083
:101590000846006840F4004008600846006840F4CF
:1015A000A05008601648091F0860081F006840F036
:1015B0008070091F086000BF0F48006800F00070CD
:1015C0000028F9D040F205700E4908600A4808303A
:1015D000006820F0030008490831086008460068E8
:1015E00040F00200086000BF03480830006800F0C7
:1015F0000C000828F8D10CBD0038024000700040F3
:1016000008544007003C0240042808D14FF0E02174
:10161000096941F004014FF0E022116107E04FF049
:10162000E021096921F004014FF0E02211617047C7
:101630007047000010B56FF00400FFF7E5FF0848A1
:1016400000680849B0FBF1F00749087008460078C7
:101650004FF47A7110FB01F00449086010BD0000DE
:101660000000002040420F0024000020280000203D
:1016700010B51548006840F470001349086013481D
:10168000006840F001001149086000200F4908314E
:1016900008600E4800680E4908400C4908600D4873
:1016A000091D0860081F006820F48020091F0860D9
:1016B000002006490C310860FFF730FF4FF0006052
:1016C00001498039086010BD88ED00E00038024013
:1016D000FFFFF6FE1030002421B1028842F08002A4
:1016E000028004E002884FF67F731A400280704740
:1016F00021B1028842F00102028004E002884FF624
:10170000FE731A400280704770B500240022002347
:10171000058C4FF6FE7635400584028C8388048B59
:101720004FF68F752C40B51E2C400D882C43751E2E
:101730002A408D892A434D882A43104DA84202D061
:101740000F4DA84213D14FF6F7752A40CD892A4391
:101750004FF6FB752A408D882A434FF6FF652B40D4
:101760004FF6FF552B400D8A2B434D8A2B43838028
:1017700004838D684563028470BD00000000014051
:10178000000401400A460021018B4FF6F77319400F
:10179000114301837047000070B50024002200232C
:1017A000058C4FF6EF7635400584028C8388048BD8
:1017B00048F6FF752C404FF6FF452C400D884FF63C
:1017C000FF7606EA05252C434FF6DF752A408D8902
:1017D00006EA05152A434D8806EA05152A43154DE4
:1017E000A84202D0144DA8421DD14FF67F752A4061
:1017F000CD894FF6FF7606EA05152A434FF6BF75E9
:101800002A408D8806EA05152A434FF6FF352B40FE
:101810004FF2FF752B400D8A06EA85052B434D8A52
:1018200006EA85052B43838004838D6885630284E3
:1018300070BD000000000140000401400A46002184
:10184000018B4FF2FF7319404FF6FF7303EA022337
:10185000194301837047000070B500240022002363
:10186000058C4FF6FF6635400584028C8388848B97
:101870004FF68F752C404FF6FC752C400D882C438D
:101880004FF6FF552A408D894FF6FF7606EA05256B
:101890002A434D8806EA05252A43154DA84202D061
:1018A000144DA8421DD14FF2FF752A40CD894FF645
:1018B000FF7606EA05252A434FF6FF352A408D8834
:1018C00006EA05252A434EF6FF752B404DF6FF75B7
:1018D0002B400D8A06EA05152B434D8A06EA0515AD
:1018E0002B43838084838D68C563028470BD0000B0
:1018F00000000140000401400A460021818B4FF6A0
:10190000F7731940114381837047416370478163C6
:101910007047C1637047000000220288184B98424C
:101920000ED0184B98420BD0B0F1804F08D0164B18
:10193000984205D0154B984202D0154B984204D1DD
:101940004FF68F731A404B881A43124B984207D0B8
:10195000114B984204D04FF6FF431A400B891A43AB
:1019600002804B68C3620B880385054B984202D006
:10197000044B984201D18B7A0386012383827047FE
:101980000000014000040140000400400008004045
:10199000000C0040001000400014004010B540F260
:1019A0002551204800F06CF8012839D11D4800F07D
:1019B00021F9C4B21C48008800F4004058BB1A4802
:1019C000008800F4804060B10A2C03D00020164942
:1019D000088020E01448008840F400401249088044
:1019E00019E00D2C06D11048008840F480400E49C3
:1019F000088010E00C480088C0F30D000B490C541F
:101A000009480088401C0849088008460088C72803
:101A100001DD0020088040F22551024800F008F85E
:101A200010BD0000001001402C0000203C000020F0
:101A300010B50022002340F66A14A14200D100BF75
:101A40000A1201249440A3B2DC43048010BD21B1EA
:101A5000828942F40052828104E082894DF6FF734C
:101A60001A408281704702460020B1F5007F00D104
:101A700000BF13880B400BB1012000E0002070472D
:101A800070B50246002400230025002040F66A16A7
:101A9000B14200D100BFC1F3421501F01F0301267E
:101AA00006FA03F3012D02D19689334006E0022D98
:101AB00002D1168A334001E0968A33400C12012687
:101AC00006FA04F41688344013B10CB1012000E08A
:101AD000002070BDF0B5034600240026002500203C
:101AE00040F66A17B94200D100BF1846C1F342144C
:101AF00001F01F06012707FA06F5012C01D10C3071
:101B000004E0022C01D1103000E014301AB1076853
:101B10002F43076002E00768AF430760F0BD000095
:101B20002DE9FF4705460E460024A14600BFA0460A
:101B3000B08900B100BF2C8A24F44054F0880443DB
:101B40002C82AC8941F20C608443B088318908430F
:101B5000718908430443AC81AC8A24F44074B08991
:101B60000443AC826846FFF7B7F82048854202D0AC
:101B70001F48854202D1DDF80C9001E0DDF80890A5
:101B8000A88900F4004040B109EBC90000EB09103E
:101B900031684900B0FBF1F707E009EBC90000EB41
:101BA000091031688900B0FBF1F76420B7FBF0F051
:101BB00004012009642101FB1078A88900F4004089
:101BC00040B1322000EBC800B0FBF1F000F007009C
:101BD000044308E0322000EB08106421B0FBF1F070
:101BE00000F00F0004432C81BDE8FF870010014086
:101BF0000014014001468888C0F308007047C1F313
:101C000008028280704700BFFEE700001FB5012177
:101C10001020FFF751F84FF4E13000900020ADF8AC
:101C20000C000C20ADF80A000020ADF80800ADF85B
:101C30000600ADF8040069460648FFF771FF01226F
:101C400040F225510348FFF745FF01210148FFF706
:101C5000FEFE1FBD001001401CB501210846FFF724
:101C60000BF8072209210E48FEF792FB07220A21F2
:101C70000B48FEF78DFB00208DF8060001208DF843
:101C8000070002208DF805004FF4C060009002208C
:101C90008DF8040069460248FEF732FB1CBD0000C7
:101CA0000000024010B5FFF7D7FFFFF7AFFF00F0CD
:101CB00001F810BD08B54FF4C060FEF755FC2520B3
:101CC0008DF8000001208DF803008DF801008DF8DB
:101CD00002006846FEF70CFC08BD000010B5044683
:101CE00021460548FFF78BFF00BF80210248FFF720
:101CF000BAFE0028F9D010BD0010014070B50446AE
:101D0000002504E0605DFFF7E9FF681C85B2605DB7
:101D10000028F7D170BD02E008C8121F08C1002AD0
:101D2000FAD170477047002001E001C1121F002A5C
:101D3000FBD1704710B50246002005E0054C831C1E
:101D4000E35C0B70491C401C9042F7DB00230B70D6
:101D500010BD00003C0000208EB0FFF76BFCFFF7C9
:101D6000A1FFFFF73CFA0024342101A8FEF72FFA67
:101D7000002517E00C48008800F4004090B10A48A4
:101D80000088C0F30D0409480578A01E84B201A99B
:101D90002046FFF7CFFF01A92846FFF71FFB0020D1
:101DA00001490880E6E700002C0000203C000020EC
:101DB00010B54FF44870FEF757FA4FF4F570FEF780
:101DC0000EFB40F2FC60FEF716FB4FF44870FEF786
:101DD0004BFAFFF7CAF8FFF727F94FF44870FEF700
:101DE00043FAFEF7EDFFFFF754F84FF44870FEF7A3
:101DF0003BFA40F25640FEF7F2FA40F25640FEF748
:101E0000FAFA4FF44870FEF72FFA40F2FC60FEF742
:101E100016FB4FF4FA70FEF71EFB4FF44870FEF706
:101E200023FAFEF7D3FFFFF73AF84FF44870FEF7B6
:101E30001BFAFFF794F8FFF7F1F84FF44870FEF73C
:101E400013FA40F25640FEF7FAFA4FF49660FEF7A6
:101E500002FB4FF44870FEF707FAFFF786F8FFF72A
:101E6000E3F810BD841E0008000000203C000000C4
:101E7000161D0008C01E00083C000020CC04000015
:101E8000261D0008007A030A000000000000000080
:101E90000102030406070809000000000102030410
:101EA000010203040607080900000000000000000A
:101EB000000000000000803F796573000100000011
:040000050800018965
:00000001FF
