:020000040800F2
:10000000000500209D0100082103000819030008D5
:100010001D0300083D020008E3080008000000007E
:10002000000000000000000000000000DD040008E7
:100030004102000800000000B1030008F5050008B7
:10004000B7010008B7010008B7010008B7010008B0
:10005000B7010008B7010008B7010008B7010008A0
:10006000B7010008B7010008B7010008B701000890
:10007000B7010008B7010008B7010008B701000880
:10008000B7010008B701000809020008B70100081D
:10009000B7010008B7010008B7010008B701000860
:1000A000B7010008B7010008B7010008B701000850
:1000B000B7010008B7010008B7010008B701000840
:1000C000B7010008B7010008B7010008B701000830
:1000D000B70100089D060008B7010008B701000835
:1000E000B7010008B7010008B7010008B701000810
:1000F000B7010008B7010008B7010008B701000800
:10010000B7010008B7010008B7010008B7010008EF
:10011000B7010008B7010008B7010008B7010008DF
:10012000B7010008B7010008B7010008B7010008CF
:10013000B7010008B7010008B7010008B7010008BF
:10014000B7010008B7010008B7010008B7010008AF
:10015000B7010008B7010008B7010008B70100089F
:10016000B7010008B7010008B7010008B70100088F
:10017000B7010008B7010008B7010008B70100087F
:10018000B7010008B7010008DFF80CD000F018F83C
:1001900000480047D50900080005002006488047B0
:1001A00006480047FEE7FEE7FEE7FEE7FEE7FEE75C
:1001B000FEE7FEE7FEE7FEE73506000889010008D6
:1001C000064C074D06E0E06840F0010394E80700A4
:1001D00098471034AC42F6D3FFF7DAFFE009000885
:1001E000000A000800220A12D34303607047014648
:1001F000C86C80B270470246002013680B400BB1F8
:10020000012000E00020704710B502210948FFF7E7
:10021000F2FF012809D10748FFF7E9FF00EE100AB5
:10022000B8EE400A044880ED000A02210148FFF7B9
:10023000D9FF10BD002001403000002000BFFEE7C4
:100240007047F0B50A4600210023002400BF3DE0BE
:10025000012505FA01F3156805EA03049C4234D12F
:1002600005684F000326BE40B543056015794E0072
:10027000B5400668354305601579012D02D0157922
:10028000022D16D185684F000326BE40B543856018
:1002900055794E00B540866835438560456801262E
:1002A0008E40B5434560456896798E40B6B2354379
:1002B0004560C5684F000326BE40B543C560D5798B
:1002C0004E00B540C6683543C560491C1029BFD3F0
:1002D000F0BDF0B5002300244D07ED0E02FA05F342
:1002E000CE1000F1200555F826504E07F70E0F26C8
:1002F000BE40B543CF1000F1200646F82750CE107F
:1003000000F1200555F8265045EA0304CE1000F10F
:10031000200545F82640F0BD00BFFEE700BFFEE720
:100320007047000070B5002100230F22C4781CB371
:10033000174C246804F4E064C4F5E064C4F30721B6
:10034000C1F10404E3B20A4144789C40E1B28478EC
:10035000144021430C07210E0E4C0578615504789A
:1003600004F01F050124AC4005786D11AD0005F1C6
:10037000E025C5F8004109E0047804F01F050124D8
:10038000AC40054D0678761145F8264070BD00005A
:100390000CED00E000E400E080E100E002490143F0
:1003A000024A1160704700000000FA050CED00E001
:1003B0007047000029B1064A12680243044B1A60D4
:1003C00004E0034A12688243014B1A607047000040
:1003D0003038024029B1064A12680243044B1A60C1
:1003E00004E0034A12688243014B1A607047000020
:1003F00044380240F0B500210022002402250026E6
:100400000223324F3F6807F00C0121B1042905D0C7
:10041000082937D105E02E4F076036E02D4F0760E1
:1004200033E02A4F3F1F3F68C7F38056274F3F1FD7
:100430003F6807F03F036EB1264FB7FBF3F7DFF8D5
:100440008CC0ACF1040CDCF800C0CCF3881C07FBBA
:100450000CF40CE01E4FB7FBF3F7DFF870C0ACF103
:10046000040CDCF800C0CCF3881C07FB0CF4174F1D
:100470003F1F3F68C7F301477F1C7D00B4FBF5F7C2
:10048000076002E0124F076000BF00BF0F4F3F68D8
:1004900007F0F0010909104F7A5C0768D740476000
:1004A0000A4F3F6807F4E051890A0B4F7A5C4768AE
:1004B000D7408760054F3F6807F46041490B064FFE
:1004C0007A5C4768D740C760F0BD0000083802403A
:1004D0000024F40000127A0014000020704700008D
:1004E0000CB50020019000903448006840F4803042
:1004F0003249086000BF3148006800F400300090C5
:100500000198401C0190009818B90198B0F5A04FCF
:10051000F1D12A48006800F4003010B101200090A9
:1005200001E0002000900098012846D12348403087
:10053000006840F080502149403108602048006840
:1005400040F440401E4908601C48083000681B49C0
:10055000083108600846006840F40040086008461A
:10056000006840F4A05008601648091F0860081F82
:10057000006840F08070091F086000BF0F480068E5
:1005800000F000700028F9D040F205700E490860B4
:100590000A480830006820F0030008490831086064
:1005A0000846006840F00200086000BF03480830B9
:1005B000006800F00C000828F8D10CBD003802409B
:1005C0000070004008544007003C0240042808D155
:1005D0004FF0E021096941F004014FF0E022116180
:1005E00007E04FF0E021096921F004014FF0E0221B
:1005F000116170477047000010B56FF00400FFF7FD
:10060000E5FF084800680849B0FBF1F007490870A9
:10061000084600784FF47A7110FB01F00449086035
:1006200010BD00000000002040420F002400002008
:100630002800002010B51548006840F470001349E8
:1006400008601348006840F001001149086000206C
:100650000F49083108600E4800680E4908400C49EF
:1006600008600D48091D0860081F006820F48020FC
:10067000091F0860002006490C310860FFF730FFB1
:100680004FF0006001498039086010BD88ED00E03E
:1006900000380240FFFFF6FE1030002410B540F293
:1006A0002551204800F05FF8012839D11D4800F09D
:1006B00013F9C4B21C48008800F4004058BB1A4823
:1006C000008800F4804060B10A2C03D00020164955
:1006D000088020E01448008840F400401249088057
:1006E00019E00D2C06D11048008840F480400E49D6
:1006F000088010E00C480088C0F30D000B490C5432
:1007000009480088401C0849088008460088C72816
:1007100001DD0020088040F22551024800F008F871
:1007200010BD0000001001402C000020340000200B
:1007300010B50022002340F66A14A14200D100BF88
:100740000A1201249440A3B2DC43048010BD21B1FD
:10075000828942F40052828104E082894DF6FF735F
:100760001A408281704770B502460024002300259C
:10077000002040F66A16B14200D100BFC1F3421515
:1007800001F01F03012606FA03F3012D02D1968919
:10079000334006E0022D02D1168A334001E0968AEA
:1007A00033400C12012606FA04F41688344013B1C3
:1007B0000CB1012000E0002070BDF0B5034600241C
:1007C00000260025002040F66A17B94200D100BF7C
:1007D0001846C1F3421401F01F06012707FA06F577
:1007E000012C01D10C3004E0022C01D1103000E0CA
:1007F00014301AB107682F43076002E00768AF435F
:100800000760F0BD2DE9FF4705460E460024A146CE
:1008100000BFA046B08900B100BF2C8A24F4405428
:10082000F08804432C82AC8941F20C608443B08888
:1008300031890843718908430443AC81AC8A24F4AC
:100840004074B0890443AC826846FFF7D3FD20486A
:10085000854202D01F48854202D1DDF80C9001E0AC
:10086000DDF80890A88900F4004040B109EBC90008
:1008700000EB091031684900B0FBF1F707E009EB24
:10088000C90000EB091031688900B0FBF1F7642062
:10089000B7FBF0F004012009642101FB1078A8895E
:1008A00000F4004040B1322000EBC800B0FBF1F092
:1008B00000F00700044308E0322000EB0810642138
:1008C000B0FBF1F000F00F0004432C81BDE8FF877E
:1008D000001001400014014001468888C0F3080060
:1008E000704700BFFEE700001FB501211020FFF791
:1008F00071FD4FF4E13000900020ADF80C000C20A9
:10090000ADF80A000020ADF80800ADF80600ADF81B
:10091000040069460648FFF775FF012240F22551A1
:100920000348FFF74AFF01210148FFF710FF1FBDF1
:10093000001001401CB501210846FFF73BFD0722CE
:1009400009210E48FFF7C5FC07220A210B48FFF7D3
:10095000C0FC00208DF8060001208DF80700022061
:100960008DF805004FF4C060009002208DF804005F
:1009700069460248FFF765FC1CBD0000000002400C
:1009800010B5FFF7D7FFFFF7AFFF00F001F810BD7C
:1009900008B54FF4C060FFF701FD25208DF8000079
:1009A00001208DF803008DF801008DF802006846E3
:1009B000FFF7B8FC08BD02E008C8121F08C1002AF2
:1009C000FAD170477047002001E001C1121F002AD0
:1009D000FBD17047FFF710FEFFF7D2FF00BFFEE725
:1009E000000A00080000002034000000B6090008DA
:1009F000340A000834000020CC040000C6090008B6
:100A0000007A030A00000000000000000102030455
:100A100006070809000000000102030401020304A4
:100A200006070809000000000000000000000000A8
:040A30000000803F03
:040000050800018965
:00000001FF
